:100000000202CC78087C007D007BFF7A0279E27ED8
:10001000007F1012027075A0FFE4F580C2A1C2A09B
:10002000F590D2A1F51BF51AF519F518E47F2A7E93
:1000300003FDFCAB1BAA1AA919A818C312029650FB
:1000400026B2A01202D830A0031202BEE4FAF9F8D8
:10005000E51B2401F51BEA351AF51AE93519F519DE
:10006000E83518F51880C5E4F51FF51EF51DF51CDB
:10007000E47F197E04FDFCAB1FAA1EA91DA81CC3AA
:10008000120296505DE4F51BF51AF519F518E47F98
:1000900009FEFDFCAB1BAA1AA919A818C3120296E7
:1000A0005025C37408951BFFEF1202ACE4FAF9F86F
:1000B000E51B2401F51BEA351AF51AE93519F5197E
:1000C000E83518F51880C7E4FAF9F8E51F2401F5BA
:1000D0001FEA351EF51EE9351DF51DE8351CF51C1A
:1000E000808EC2A1E4F51BF51AF519F518E47F2AF4
:1000F0007E03FDFCAB1BAA1AA919A818C31202960D
:100100005026B2A01202D830A0031202BEE4FAF9BF
:10011000F8E51B2401F51BEA351AF51AE93519F53E
:1001200019E83518F51880C5E4F51FF51EF51DF51D
:100130001CE47F197E04FDFCAB1FAA1EA91DA81C90
:10014000C31202965058E4F51BF51AF519F518E498
:100150007F09FEFDFCAB1BAA1AA919A818C312023D
:10016000965020E51B1202ACE4FAF9F8E51B2401D5
:10017000F51BEA351AF51AE93519F519E83518F5B8
:100180001880CCE4FAF9F8E51F2401F51FEA351EC2
:10019000F51EE9351DF51DE8351CF51C809380FE24
:1001A000E709F608DFFA8046E709F208DFFA803E41
:1001B00088828C83E709F0A3DFFA8032E309F6082E
:1001C000DFFA8078E309F208DFFA807088828C8396
:1001D000E309F0A3DFFA806489828A83E0A3F6084A
:1001E000DFFA805889828A83E0A3F208DFFA804C24
:1001F00080D280FA80C680D4806980F280338010FB
:1002000080A680EA809A80A880DA80E280CA803363
:1002100089828A83ECFAE493A3C8C582C8CCC583DB
:10022000CCF0A3C8C582C8CCC583CCDFE9DEE780AB
:100230000D89828A83E493A3F608DFF9ECFAA9F02A
:10024000EDFB2289828A83ECFAE0A3C8C582C8CC80
:10025000C583CCF0A3C8C582C8CCC583CCDFEADE99
:10026000E880DB89828A83E493A3F208DFF980CCFB
:1002700088F0EF60010E4E60C388F0ED2402B404F4
:100280000050B9F582EB2402B4040050AF2323459B
:1002900082239001F073EB9FF5F0EA9E42F0E99D16
:1002A00042F0EC6480C864809845F02225E0240880
:1002B000F808E6F5907F247ED9DEFEDFFC22007F81
:1002C000037E1A7DDFDDFEDEFCDFFA22787FE4F6B6
:1002D000D8FD75811F020003007F047E92DEFEDFE1
:1002E000FC220011003300220066004400CC00888C
:0202F000009973
:00000001FF
