:100000000202377C007F207E00C2AF8FE38DE47553
:0F001000E50175E64675E6B9D2AFAFE27E002294
:100023000204F88F23E52330E304D2A28002C2A2A4
:10003300E5235480FF3395E04F601EC3E50B949096
:10004300E50A648094815011C2A1D2A0120536053D
:100053000BE50B7002050AC2A0E52330E61ED3E5CB
:100063000B9401E50A648094804011D2A1D2A012BE
:100073000536E50B150B7002150AC2A0E52330E522
:100083003BC3E50D9484E50C64809483502EE4F522
:1000930024F525E5A0540FF526E52512050E0525C3
:1000A300E52570020524C39408E524648094804008
:1000B300E253A00F050DE50D7002050CE52330E4B6
:1000C3003ED3E50D9401E50C648094804031E4F562
:1000D30024F525E5A0540FF526C3740895251205CC
:1000E3000E0525E52570020524C39408E5246480E4
:1000F300948040DF53A00FE50D150D7002150C22FF
:10010300BB010689828A83E0225002E722BBFE02FA
:10011300E32289828A83E49322C2D5EC30E709B2D1
:10012300D5E4C39DFDE49CFCEE30E715B2D5E4C3F2
:100133009FFFE49EFE120152C3E49DFDE49CFC80FC
:100143000312015230D507C3E49FFFE49EFE22BC95
:10015300000BBE0029EF8DF084FFADF022E4CCF854
:1001630075F008EF2FFFEE33FEEC33FCEE9DEC98B9
:100173004005FCEE9DFE0FD5F0E9E4CEFD22EDF83F
:10018300F5F0EE8420D21CFEADF075F008EF2FFFE2
:10019300ED33FD4007985006D5F0F222C398FD0FCA
:1001A300D5F0EA225390F053A0F8C2A2E4F50AF581
:1001B3000BF50CF50DFDFC7F20FE120009EF7D0011
:1001C300FCC005C0040D120003D0E04EF50AD0E0D8
:1001D3004FF50B7D02120003EF7D00FCC005C00448
:1001E3007D03120003D0E04EF50CD0E04FF50D85F2
:1001F3000A21850B22D3E5229401E52164809480B2
:10020300400F7F40120026E522152270E815218059
:10021300E4850C21850D22D3E5229401E521648038
:100223009480400F7F10120026E522152270E815F6
:100233002180E422787FE4F6D8FD75812602027ED0
:1002430002045FE493A3F8E493A34003F68001F26E
:1002530008DFF48029E493A3F85407240CC8C333BC
:10026300C4540F4420C8834004F456800146F6DF8B
:10027300E4800B01020408102040809004C6E47E51
:10028300019360BCA3FF543F30E509541FFEE49380
:10029300A360010ECF54C025E060A840B8E493A347
:1002A300FAE493A3F8E493A3C8C582C8CAC583CA72
:1002B300F0A3C8C582C8CAC583CADFE9DEE780BE2A
:1002C3005468652053657269616C20506F727420A5
:1002D3006973204F4B210D0A00424155443A31398D
:1002E3003230300A464F53433A32322E31313834AA
:1002F3004D487A0D0A004D61646520627920576587
:10030300694D696E676D696E67207465616D2E0D49
:100313000A00417574686F723A4A696E5969666575
:10032300692C46656E6744656C616E672C5A68611B
:100333006F51692E0D0A005468617420697320613E
:100343006C6C2E0D0A00C2AFE50945086063E51E1B
:10035300540724FE601814601A14601C24FD601DE9
:1003630024067048E51E54F8FF120026803E120151
:10037300A780391203B78034120418802FD2AF7BC1
:10038300FF7A0279C31204877BFF7A0279DC1204B5
:10039300877BFF7A0279F91204877BFF7A03791549
:1003A3001204877BFF7A03793A120487E4F508F590
:1003B30009D2AF225390F053A0F8C2A27F017E006E
:1003C3001204E0AE0AAF0B7C017D0012011CAB07E7
:1003D300E4FDFC7F20FE1204B2AE0AAF0B7C017D6C
:1003E3000012011CAB057D011204ACAE0CAF0D7CF9
:1003F300017D0012011CAB077D021204ACAE0CAFF1
:100403000D7C017D0012011CAB057D037C007F2068
:100413007E000204B2850A21850B22D3E5229401D2
:10042300E52164809480400F7F40120026E5221569
:100433002270E8152180E4850C21850D22D3E52265
:100443009401E52164809480400F7F10120026E51B
:1004530022152270E8152180E40203B71201A7E4F4
:10046300F5A07598DA758920F5E543E78175E646C9
:1004730075E6B9758BFD758DFDD28ED2ACD2AF12F8
:10048300034980FB8B218A228923AB21AA22A9233A
:1004930012010360130523E5237002052214F912E8
:1004A3000103FF12052280E2227C007F207E00C22E
:1004B300AF8FE38DE48BE275E50275E64675E6B929
:1004C300D2AF22100E001000300020006000400068
:1004D300C00080009002080000011E0000C2AFEFC0
:1004E30025E0241EF5E3E4F5E475E50375E64675BA
:1004F300E6B9D2AF2230980BC29885991E750800D1
:10050300750901309904C299C2003225E0240EF81E
:1005130008E64526F5A07F247ED9DEFEDFFC2230E7
:100523000003EF80FA30D004D29B8002C29BD2003A
:0C053300F599227F487EB5DEFEDFFC2239
:00000001FF
