:1000000002016DE709F608DFFA8046E709F208DF2A
:10001000FA803E88828C83E709F0A3DFFA8032E31E
:1000200009F608DFFA8078E309F208DFFA807088C1
:10003000828C83E309F0A3DFFA806489828A83E0FB
:10004000A3F608DFFA805889828A83E0A3F208DFEA
:10005000FA804C80D280FA80C680D4806980F28099
:1000600033801080A680EA809A80A880DA80E280BF
:10007000CA803389828A83ECFAE493A3C8C582C814
:10008000CCC583CCF0A3C8C582C8CCC583CCDFE97E
:10009000DEE7800D89828A83E493A3F608DFF9EC1A
:1000A000FAA9F0EDFB2289828A83ECFAE0A3C8C5A5
:1000B00082C8CCC583CCF0A3C8C582C8CCC583CCCC
:1000C000DFEADEE880DB89828A83E493A3F208DF3B
:1000D000F980CC88F0EF60010E4E60C388F0ED240B
:1000E00002B4040050B9F582EB2402B4040050AF0E
:1000F00023234582239000537378087C007D007B86
:10010000FF7A0179797E007F101200D3E4F59075B3
:10011000A0FFF58020A21DE4F518F519E5191201DC
:100120005B0519E51970020518C39409E518648088
:10013000948040E830A2DDE4F518F519C3E5199480
:1001400009E5186480948050CBC374089519120196
:100150005B0519E51970E5051880E125E02408F82C
:1001600008E6F5907F247ED9DEFEDFFC22787FE46E
:10017000F6D8FD7581190200F90011003300220044
:0901800066004400CC00880099DF
:00000001FF
